:1000000000100020E50100001102000011020000B4
:100010001102000011020000110200001102000094
:100020001102000011020000110200001102000084
:10003000110200001002000011020000B143000094
:100040001102000011020000FD0200001102000078
:100050001102000011020000110200001102000054
:100060001102000011020000110200001102000044
:1000700059350000110200001102000011020000B9
:1000800011020000110200001102000010B5064C20
:100090002378002B07D1054B002B02D0044800E049
:1000A00000BF0123237010BD1001002000000000DC
:1000B000085C0000044B10B5002B03D00349044832
:1000C00000E000BF10BDC046000000001401002089
:1000D000085C0000164B002B00D1144B9D464022BB
:1000E00092029A1A924600218B460F461348144AF0
:1000F000121A04F0E4FC0F4B002B00D098470E4B73
:10010000002B00D098470020002104000D000D486E
:10011000002802D00C4800E000BF04F0A3FC20003F
:10012000290004F0D9F904F087FCC046000008005B
:10013000001000200000000000000000100100205E
:10014000CC0A0020000000000000000010B50121D2
:100150000A4802F0E7F90121094802F0E3F9002317
:1001600004220A21022002F0F5FB002304220B21C5
:10017000022002F0EFFB002010BDC04640810400C9
:100180000072040001280DD8084AC000815C1018D4
:100190000122436800209A4024234B4304495B1802
:1001A0005A61704701204042FBE7C04638530000C7
:1001B0000060004001280DD8084AC000815C10187A
:1001C0000122436800209A4024234B4304495B18D2
:1001D0001A61704701204042FBE7C04638530000D7
:1001E00000600040064880470649074A074B9B1AB3
:1001F00003DD043BC858D050FBDCFFF76BFF000069
:10020000D5020000145C0000000000201001002056
:10021000FEE7C0460048704700366E01F0211D4AD7
:100220008901D36A0B40802149018B422FD0802164
:1002300089018B4205D0802109018B4204D1164BE4
:1002400000E0164B18687047D368E022D2001340D4
:1002500080229200934214D007D8002B15D0013A87
:10026000FF3A93420FD00020EDE7C0229200934264
:1002700005D00132FF329342F5D10948E3E709483E
:10028000E1E70948DFE70948DDE70948DBE78020C7
:100290000002D8E700800C40040000200800002085
:1002A000406F4001809FD500C0D8A70040B56400D2
:1002B000804F120010B5FFF7B1FF0F22034B5B68B0
:1002C0001340D840024B186010BDC04600800C405F
:1002D00000000020014A024B9A60704700000000B5
:1002E00000ED00E0802000027047FA208000704797
:1002F000014B18687047C0460800002002210C4AD4
:100300000C4B51605960013991615A6A0A4B0B4894
:10031000197889000A5019780948890009589142CA
:1003200002D21B789B001A500122064B1A707047AC
:1003300000000140000401406C0100204C0100203D
:100340002C0100206D010020054B8000C258C158CF
:10035000044B8908C358501A834280414042704779
:100360002C0100204C01002070B5184801F0ABFFB3
:1003700000230125164C23702378072B03D913483B
:1003800001F09CFF70BD2378124AD35C002B04D18E
:1003900023780133DBB22370EEE721780B48C9B232
:1003A00001F086FF00230C480C490D4A43624B6262
:1003B0001370456004204D600A491378002BE7D183
:1003C0000B6983430B6130BFF7E7C0460010004064
:1003D0006C0100205C53000000000140000401405B
:1003E0006D01002000ED00E030B587B001AC2200C7
:1003F0001B4B23CB23C2042503CB03C20121194885
:1004000002F090F80121184802F08CF801211748F9
:1004100002F088F8164A0121536C16482B435364A6
:1004200002F080F89022144B12051A600A22DA6159
:10043000093ADA6000225A62104B114A21001A6010
:10044000104A1148DA61114A1A648122104B520491
:100450001A6101F009FF0F4B1D6007B030BDC046A7
:100460004853000040810400000204000012040010
:1004700000800C40004204000000014000040140E4
:100480000000010AFFFF0000001000400100100AF8
:1004900000C00C4000E100E010B5084B1C78002CB7
:1004A00001D0002010BD01221A70054BE358002B2B
:1004B000F7D0984704340028F7D0F3E7A0010020D4
:1004C0000C00002010B50A4B0C001B78002B0BD041
:1004D00000280BDC2C2201005143064B2000591848
:1004E00004F0E4FA002010BD0348FCE70348FAE7F3
:1004F000A001002070010020050011800200118081
:1005000010B50B4B01001B78002B0DD0094A136866
:10051000002B0BDC581C10602C2253430648C018DB
:1005200004F0C4FA002010BD0448FCE70448FAE7D0
:10053000A00100209C010020700100200500118016
:100540000100118030B580290DD1084912010C68D5
:10055000074DA2180020AA4202D91860054830BDF4
:100560001C600A60FBE70448F9E7C046140000205D
:10057000A10900200100118002001180004870478D
:100580000400118010B500F033F900F0EBF8002002
:1005900010BDF8B5047C1D00013C631E9C410E009B
:1005A00000276442E4B238013018AF4201D1002084
:1005B000F8BD1022210004F082FA0137F3E7F7B505
:1005C00004200F000B2100F037F9062000F015F988
:1005D000089B02215D1C6B469E1D0123ADB22A02C1
:1005E000134330003380002400F0E0F8099B200121
:1005F00038189C4208D1022000F0FFF80B2104209B
:1006000000F026F90020FEBD102100F0CFF8099B74
:10061000013BA34208D101235B4202213000338019
:10062000013400F0C3F8E1E7FF226B1C1B191B0229
:100630001343F2E710B50A21042000F015F910BDAC
:1006400010B50821002000F0F7F80A21002000F082
:10065000F3F810BD10B50C1E03D0FFF7F1FF00201A
:1006600010BD0A21200000F0F3F80821200000F05E
:10067000EFF8F4E730B58DB000F0BAF800F072F89A
:1006800000F0C2F800230F211A00022000F0C6F883
:10069000002307211A00032000F0C0F800230B21DB
:1006A0001A00042000F0BAF8002308211A001800EC
:1006B00000F0B4F800230A211A00180000F0AEF888
:1006C00000230A211A00042000F0A8F8402200218B
:1006D0001C4800F097F8041E30D11B4B01A8019371
:1006E000012303747F334360C3608360174B4474FA
:1006F0004361174B8361174BC361174B0362174B61
:100700004362174B8362FFF7FBFE041E16D1FFF70F
:1007100097FF0B21042000F08FF8062000F06DF801
:100720006B460425981C0221058000F03FF802204A
:1007300000F063F80B21280000F08AF820000DB0CB
:1007400030BDC04635060000645300005506000069
:10075000450500007D050000BF0500009305000071
:100760008505000030B587B06C4622000A4B23CBCC
:1007700023C223CB23C2094D0121094801F0D2FE37
:10078000084B28002100A36002F042FC0020064B29
:100790006B6507B030BDC0467C53000000C400400C
:1007A00000320400E0C810000A03000070B5012602
:1007B00004000D00002D06D120230C490A691A42BD
:1007C000FCD0002070BD012D01D0344206D021782C
:1007D000064802F055FC013D0134EBE7218803484F
:1007E00002F054FC023D0234E4E7C04600C400407D
:1007F00010B500F0B7FE002010BD10B500F088FF66
:10080000002010BD0020704710B50121024801F002
:1008100089FE002010BDC0460072040010B5141EF1
:1008200005D1C0B2042202F095F8200010BD0148A5
:10083000FCE7C046010013800123C2B224208B4094
:100840005043024A80180361002070470060004056
:100850000123C2B224208B405043024A80184361D6
:1008600000207047006000400123C2B224208B406A
:100870005043024A801883610020704700600040A6
:1008800030B585B0040001211D4801F04BFE1D4B21
:1008900022689A4232D101211B4801F043FE61795E
:1008A000207901230A2202F055F8E179A079012389
:1008B0000A2202F04FF80122637909219A40242389
:1008C0002079124D4343124818185B190139026010
:1008D0001A600029FAD10323227A206812021343F6
:1008E00083636A4601231370537023696946029338
:1008F000E3680193237D137302F0A6F805B030BDC1
:100900004081040000A0004000B2040014600040D8
:100910001060004070B5050002F060FA054C012837
:1009200002D1013C002C00D170BD280002F0A8F8D3
:10093000F5E7C046E193040010B586B01C0001AB9A
:1009400019800421598069460A70012202911A8196
:100950001A8219000494FFF7DDFF002801D0FF235D
:10096000237006B010BD10B588B003AC2180012102
:10097000618002A94B700223238101AB06930023FF
:100980000A70049121002382FFF7C4FF08B010BD54
:1009900070B58AB005AC21800121618002A90A707E
:1009A000002293420BDC0133238101ABE36000237F
:1009B000616021002382FFF7ADFF0AB070BD0132F4
:1009C0000E9E551E755D8D54EBE710B586B001ACDB
:1009D00021800421618069460A7001222281089ADF
:1009E0000291210004922382FFF794FF06B010BD0C
:1009F00010B50C001300017922000068FFF7B3FF67
:100A000000B210BD13B56B46DC1D0A00230001794E
:100A10000068FFF791FF207816BD13B50C0001792F
:100A20000093006813002200FFF7B2FF00B216BD6A
:100A300013B50C0001790093006813002200FFF742
:100A4000C4FF00B216BD10B50A2002F059FC10BD5B
:100A500010B5012002F054FC10BD000010B50300D9
:100A6000044801710360002A00D001220321FFF72E
:100A7000BFFF10BDC009002010B5054B140019714F
:100A8000186003211800FFF7BDFF2060002010BD93
:100A9000C0090020F7B51E000023214C3360170069
:100AA00001AA21712060FFF7E7FF019B002B09D10C
:100AB000200000F0F2FA012521212000FFF7A2FF1B
:100AC0002842F9D02C212000FFF79CFF2D210500A2
:100AD0002000FFF797FF000205433235A8B26421DA
:100AE00003F024FD019B3880002B12D12621200029
:100AF000FFF788FF272105002000FFF783FF282349
:100B000000020543FF33ADB29D4202D9273BFF3BB4
:100B10003360FF2221212000FFF76AFF0020FEBD85
:100B2000C0090020F0B587B07D4C1700217120600E
:100B300026212000FFF766FF272105002000FFF790
:100B400061FF0002054328212000FFF75BFF2921F8
:100B500006002000FFF756FF00020643B3B22A2129
:100B600020000193FFF74EFF2B2106002000FFF726
:100B700049FF0002064321212000FFF743FF212106
:100B8000C2B22000FFF734FF6B469B8804A9ADB2C8
:100B9000B6B24B800D808E80080089214900002369
:100BA0008C46604A5C00245A995C644522D900292D
:100BB00004D101315C4C995499000F510133032B3E
:100BC000F0D11033FF3300209D4211D8019A9A4290
:100BD0000ED89E420CD8544C544D2068002810D199
:100BE000002000232B6023606B606360AB60A36018
:100BF00007B0F0BD0129E1D100214C4C9954990076
:100C0000DBE761680029EBD0A268002AE8D02B68F6
:100C10009C46002BE4D06F68002FE1D0AE68002E18
:100C2000DED0FC231B069C4509D89F4207D89E4274
:100C300005D8984203D8994201D89A420DD93C4B25
:100C400063442B603A4BFF18F618C018C918D21825
:100C50006F60AE6020606160A26022682B68696886
:100C6000981A43089B186268A668891A0291490875
:100C70008918AA68921B039252089219571A914236
:100C800000D98F1ACE1AB4468B4201D95E1AB446E7
:100C9000D61A0196934201D99E1A01960A2805D8C0
:100CA00002980A2802D803980A2899D98B422FD291
:100CB0000120674595D3934206D8019E0120B74293
:100CC00000D28EE78B4210D20220674500D288E71F
:100CD000934218D8914208D96046019E8019400875
:100CE00006000320B74200D97BE7934200D377E7A1
:100CF000914200D374E7019B63445E08B74200D879
:100D00006EE704206DE7019EB74200D269E7E1E794
:100D10009342D2D9019E0220B74200D261E7E4E7B4
:100D2000C0090020BC090020A4090020B00900204F
:100D3000FFFFFF1F70B586B0384D160028602800F1
:100D4000297100F026FABB2204000F212800FFF7CA
:100D50004FFE0B22241810212800FFF749FEA4B2F1
:100D6000241800226946280000F060FA6A46002133
:100D7000280000F05FFB87220121280000F097F98E
:100D8000A4B224181D2204212800FFF731FEA4B2CA
:100D9000241824220C21280000F089F9A4B2241878
:100DA00000220721280000F082F9A4B224180022B2
:100DB0000821280000F07BF9A4B2241800220921A0
:100DC000280000F074F9A4B2241820221F21280062
:100DD00000F06DF9A4B2241820221221280000F09E
:100DE00066F9A4B22418A4B2002E02D020B206B034
:100DF00070BD012209212800FFF7FAFD40220600FC
:100E000008212800FFF7F4FD3618280000F04AF901
:100E1000A419A4B2201800B2E9E7C046C009002016
:100E200010B526210248FFF7EDFD80B210BDC04687
:100E3000C00900202239223AC9B2D2B2415C825C98
:100E4000002B0FD109011309CB180A4A93420ED087
:100E5000002B0CD08020DAB240001B0A1043033371
:100E6000984070470B029B181B051B0DEDE70120F6
:100E70004042F6E7FF0F00000368002902DD8B40C7
:100E8000036070474942CB40FAE7437B007B1B027B
:100E9000C01800B2C31C0CD0C31C01DB00280ADB45
:100EA00004235B42181A00B2012801DD01204042F0
:100EB00070470120F4E70020FAE770B5C824050068
:100EC00030212800FFF79EFD40B2012809D00028FC
:100ED00001DA00B270BD013CE4B2FFF7B9FD002CAD
:100EE000EED10020F6E7F7B50F0020210600FFF74E
:100EF00089FD041E08DBC82301933000FFF7DDFFE6
:100F000040B2002802D004B22000FEBD002F1CD049
:100F100020213000FFF776FD40B205B2A54208D08F
:100F200000282ADB019B2C00013BDBB20193002B44
:100F3000E3D13A0018213000FFF75AFDC82344B22C
:100F40000193002C15D024B2DEE72500F1E7202123
:100F50003000FFF757FD40B204B2A5420BD1002884
:100F6000D2DBFFF775FD019B013BDBB20193002B48
:100F700001D0002FEBD10024C6E72C00C4E7F8B560
:100F80000024036805000E00A34203D04B1C03D0CD
:100F900001290DD02000F8BD012700242B683B4219
:100FA000F8D101343100280064B2FFF765FFF5E79E
:100FB00080273F06F1E7000010B504000121FFF78C
:100FC000DEFF23680B49DA0BD2038A420AD1802361
:100FD00001381B06236040B2404241B22000FFF7B7
:100FE0004BFF10BD802212029B181B0C1B042360B8
:100FF000F2E7C0460080FFFF73B504000068431CA1
:1010000023D06368013B033320D8261D2000FFF75F
:10101000D3FF3000FFF7D0FF01212000FFF7AFFF23
:101020000121050049423000FFF7A9FF636806006F
:1010300099B2206803F07AFA1421AD19491B019086
:1010400049B201A8FFF718FF019876BD0120404280
:10105000FBE7F7B501270500061D7F42FFF7ACFF50
:101060003000FFF7A9FF39002800FFF788FF39009B
:1010700004003000FFF783FF0CCD241821005343F8
:10108000143901A849B20193FFF7F6FE0198FEBD9D
:1010900010B50021FFF727FF10BD10B50721FFF79E
:1010A00022FF10BD10B50F21FFF71DFF10BDF0B5D9
:1010B00085B004000D000192FFF7FFFE061E19D156
:1010C00020212000FFF79EFC6A46127903AB1A70BC
:1010D0001F2215400700603D1D3A172120005D705A
:1010E000FFF79BFC061E05D120212000FFF78AFC9C
:1010F000B84202D0300005B0F0BD20212000FFF73B
:1011000081FC0500874201D1FFF7A2FC2800EFE730
:10111000F8B5050030212800FFF774FC40B2012823
:1011200033D0FFF795FCF5E7013E00221821280097
:10113000F6B2FFF75DFCFFF78BFC002E06D03900FE
:101140002800FFF75FFC40B20028EDD10B212800FA
:10115000FFF7C9FEC82639002800FFF753FC40B24C
:10116000002805D1013EF6B2FFF772FC002EF2D145
:1011700039002800FFF746FC40B2012803D0013CAB
:10118000E4B2002C03D10020F8BDC8242027C826D3
:10119000D5E770B50400FFF756FCFFF754FCFFF7E6
:1011A00052FC002208212000FFF722FC0022092126
:1011B00005002000FFF71CFC2D182000FFF7A8FFFA
:1011C0000022451908212000FFF712FC00224519D2
:1011D00004212000FFF70CFC002246190521200005
:1011E000FFF706FC0022851906212000FFF700FC0E
:1011F0000022451903212000FFF7FAFBFF224519C1
:1012000021212000FFF7F4FB0122182145192000BD
:10121000FFF7EEFB4519FFF716FC17220721200008
:10122000FFF7E6FB401900B270BD000070B586B054
:1012300004000D0000285AD0002958D0012A1DD1E1
:1012400002AE33000B322221FFF7F2FB00280FD051
:101250000224E822802312045B03AA60C0222B60D0
:101260006B602B610023D2036442EA606B61DBE0B8
:10127000335C002B3DD101300C28F9D12000FFF761
:1012800007FF0028E4D120212000FFF7BBFBC0B2FC
:10129000002830D0FFF7DCFBF0E70300B343D7D1E1
:1012A00001280DD0FFF7D4FB20212000FFF7AAFB77
:1012B000C0B28028F1D12000FFF7EAFE0324C8E77E
:1012C00002AB0C2222212000FFF7B2FB0028BFD185
:1012D0002000FFF7DDFE0028BAD120212000FFF713
:1012E00091FBC0B2002813D0FFF7B2FBF0E7042453
:1012F000AFE70124ADE7122218212000FFF778FBA9
:1013000006002000FFF7D9FD002EA1D10F36CBE754
:10131000112218212000FFF76BFB06002000FFF7C9
:10132000CCFD002E94D1200005AB02222621FFF730
:101330007FFB041E8CD102A8FFF7A7FD43013C48A8
:101340002C22C01883692B21009302A82300FFF7E9
:1013500071FD01906846FFF74FFE431C01D18020CC
:101360004003286102A8FFF790FD4301304829227D
:10137000C01803692821009302A80023FFF75AFD33
:1013800001906846FFF738FE431C01D180204003DE
:10139000286002A8FFF779FD430125482522C018DF
:1013A00043682221009302A80123FFF743FD019027
:1013B0006846FFF721FE431C01D18020400368608E
:1013C00001232522222102A8FFF734FD00230090EB
:1013D0002222232102A8FFF72DFD01906846FFF786
:1013E0000BFE431C01D1E8200004A86002A8FFF70F
:1013F0004CFD0F4B40011C301818686101232A2254
:10140000292102A8FFF716FD0023009022222321A4
:1014100002A8FFF70FFD01906846FFF7EDFD431CA2
:1014200001D1C020C003E860200006B070BDC046F6
:1014300018000020F0B585B006000C00150000294A
:1014400006D15469002C03D10120404205B0F0BD03
:1014500000213000FFF7D6FA3238C0B21528F3D891
:1014600001238340164A1342EED02A68002A01D194
:10147000802252036F68002F01D180277F03637899
:1014800021781B025B1802A802930392FFF7E1FD8B
:1014900001AD2870000A6870E378A2781B029B18DF
:1014A00002A802930397FFF7D4FDA870000AE87022
:1014B0002B00042213213000FFF7AFFA40B2C5E73A
:1014C0000100380070B588B0150003AA118004210E
:1014D000518001A90B7002240123049102AE1381F3
:1014E000148211000696FFF715FA002803D0002396
:1014F0002B6008B070BD0321337872781B028A43D9
:101500009B182B602000F4E7F8B51C00E5230600CB
:101510000F001500FFF7D6FF022802D0012040423D
:10152000F8BD2A680B4B390053430B4A5B0B9B18E1
:101530002B602200E0233000FFF7C4FF0228EDD12A
:101540002268064B00205343054A5B139B18236017
:10155000E6E7C046093D000090E8FFFFCD550000DA
:10156000FE48FFFFF0B58DB0032261490BA803F0E0
:101570009DFA00225F4C236C02925B0705D4012187
:101580005D4800F0CFFF012302935C4801F004F8AE
:101590004023E26A03211A4007905848019201F063
:1015A00027F9574800F020FF80210890490054484F
:1015B00000F050FFA36D002201240392234204D1C6
:1015C00021004F4800F0AEFF039401F07FF901269F
:1015D0004C4C09902568354000D16BE02368802190
:1015E0000493A368484A0593E368E56906930023DA
:1015F0002360E3610733A3617A33FF334901D1509C
:1016000000230BA8837001F043FC404B802219009B
:1016100052011A601A6852001A600AD06068626843
:101620009042FCD060680A68013AFDD86268904236
:10163000F0D0364B092118001A6852081A601A684F
:101640000139002901D0520839D1099801F042F935
:10165000002E48D008992A4800F0FCFE012001F035
:101660000DFC059B0020A360069BE360049B2360A8
:10167000E56101F003FC039B002B03D0002120480F
:1016800000F050FF079B032B03D019001B4801F00B
:10169000AFF8019B002B04D11A001900012001F0C2
:1016A00077F8029B002B03D00021134800F03AFF8B
:1016B0000DB0F0BD0695059504952E00A0E71F68B6
:1016C00017431F606768BC466768BC45FCD0676805
:1016D000BC460768013FFDD86768BC45B0D00768C5
:1016E00097430760ACE7300001F0BEFBC3E7C0469C
:1016F0009453000000800C40D0233E0002001E00E6
:10170000800612000000084000E100E058000020C0
:1017100008490300002B0CD0013B88221202003242
:1017200053430A68D80AD20A5043800901D00138CD
:10173000FDD8704758000020044B1A780123002A76
:1017400002D0034B0360002318007047000A0020FA
:10175000C8090020F0B506000C4804780120002CD0
:1017600013D00B4CB51827880330BD420DDC6788B9
:10177000CD18BD4209DC0130002A06D0002B04D070
:101780000020A680E18022816381F0BD000A002054
:10179000C8090020F0B587B00593504B04001B78B2
:1017A0000120002B18D04E4B1B68002B14D04D4A43
:1017B000557C002D00D08EE09268D20803924A4AF0
:1017C000039FD288029089188AB257430192DF1989
:1017D0000D9B002B02D1180007B0F0BD424A0D9BB3
:1017E00015892D1B9D4200D91D000D9B5B1B0D9380
:1017F0003C4B197C01292DD8059B58424341DBB253
:101800005E1EF6B2012901D05E42F6B2908824181D
:10181000A4B2072D32D86519002E19D1A54219D9C5
:101820000722029922409140E308FB181A780134FC
:101830008A431A70A4B2F1E707220299224091402C
:101840000A00E308FB18197801340A431A70A4B29D
:10185000A542F1D81F220198019B0240029823491A
:10186000904002005B119B005858002402435A50DC
:10187000019B01330193039BFF18A9E70722224034
:10188000E4083C19002A0CD0029B20789340DBB27C
:101890005942013B314003400B43083A2370AD18D5
:1018A0000134EB0804930BD01A002000310003F040
:1018B00006F9EB08DB00ED1A049BE418002DC9D0F3
:1018C000029B2278AB40DBB25942013B0A401E40EA
:1018D00016432670BEE70A207EE7C046000A0020B5
:1018E000040A0020D4090020C8090020580A00205A
:1018F00070B504000B4801238569002D0FD00A4EF6
:10190000C26833004168A84732680B23002A06D01A
:101910002260FF211022054803F0D1F800231800AF
:1019200070BDC046D4090020040A0020580A0020D7
:10193000F7B50024184D2B78A34229D1FEF7ACFD52
:10194000041E25D1154E3100FEF7BCFD041E1FD12B
:10195000134F3800FFF7CCFF041E19D13B68002B52
:1019600018D0F368716898B203000E4A8FB25080A5
:10197000508117809480D480178101227B432A7084
:10198000210001930094230022002000FFF702FFB2
:101990002000FEBD0B24FBE7000A0020D409002034
:1019A000040A0020C8090020F0B585B0244B0125A9
:1019B0009968CB080293234B1C6800231F00204822
:1019C000FE18C268964209D3002B2BD110220021A9
:1019D0001C4803F074F8002005B0F0BD012222403D
:1019E0000AD001331F21FA1864080A42E7D1154AC8
:1019F000A9008C580135E2E7002B11D002997943F8
:101A000003911149096801938C4603990097614439
:101A1000076A4368B8470028DED1771C0300E1E776
:101A20000137DFE70299084A79431268019300976A
:101A30005118046A43680022A0470028C6D0CBE7AB
:101A4000D4090020580A0020040A002010B5030021
:101A50000520002B06D000211A6808005388128840
:101A6000FFF778FE10BD73B505000520002D13D0DB
:101A700028006C68FFF7EAFF00280DD12D68230AC3
:101A80002E896989220C7143E4B20191DBB2D2B292
:101A900000940100FFF77EFE76BD10B50200052020
:101AA000002A0DD0D36898B2136999B2936952692C
:101AB000013301325B1A121A9BB292B2FFF74AFE4F
:101AC00010BDF8B5052300281DD000291BD00E68D5
:101AD0008C68013BA64216DA4D68CA68954212DA54
:101AE000013B002E0FDB002D0DDB01680F88BC428F
:101AF00009DA49888A4206DAC66005614461826172
:101B0000FFF7CBFF03001800F8BD000030B587B029
:101B10000524051E1CD0002343600F4B836001A8E1
:101B2000FFF70AFE041E13D1019B02901A8803904E
:101B3000013A2B6004925B8802A9013B28000593BF
:101B4000FFF7BFFF041E03D10449280000F07BFB10
:101B5000200007B030BDC046FFFFFF00C8560000A0
:101B600010B5040C0C70010A1170187010BDF7B597
:101B7000052504000E001700002812D00C3000F0DC
:101B80001BFA043D00280CD0A468B9B2230A220C29
:101B9000E4B20195DBB2D2B2B0B20094FFF7FAFD25
:101BA00005002800FEBDF7B505250E0017001C0036
:101BB000002811D00C3000F0FFF9043D00280BD0B4
:101BC000230A220CE4B20195DBB2D2B2B9B2B0B2B0
:101BD0000094FFF7DFFD05002800FEBDF0B593B0CF
:101BE00000242500009118A9019204C907000E786D
:101BF0005042594202920393049105900690079136
:101C0000089309920A910B900C900D910E930F92EC
:101C100010921193002E03D16842684113B0F0BDB9
:101C200001231E420FD00AABE258019B38009A18DC
:101C300002ABE158009B5918FFF799FF0128EDD836
:101C4000434258412D1876080434E3E7F0B587B0D5
:101C500004920CAA12780700039105920520002F28
:101C600013D01C00019200940023049A3800FFF75F
:101C7000B5FF012809D8012300251E1B434002930C
:101C8000A54204DB02984342584107B0F0BD6B0007
:101C9000002E02DB013C2B1B5B000133F618059B79
:101CA00000940193049A2B0003993800FFF796FFE4
:101CB00001350128E9D843425841029B1B18029381
:101CC000DEE713B5FF240094FFF7C0FF16BD10B583
:101CD000C46801238C4200DC00234469DBB28C42DF
:101CE00001DA02210B438169914201DA04210B439D
:101CF0000169914201DD08221343180010BDF0B5BF
:101D000087B00524051E44D00069043C904240DCA5
:101D1000A86990423DDB994202DD080019000300EA
:101D20006E6901248E4234DBEF689F4231DC08008B
:101D3000B94200DA38009E4200DD1E00341A631CEE
:101D400003936B469C8991B280B222000123FFF776
:101D500001FD041E1DD10E270D2602ABFF18F6183B
:101D60000F2302AA9B1831003A00A868FFF7F8FE7B
:101D700003993B783278019102A9C97B2000009138
:101D80002100FFF707FD041E03D12800FFF785FEA1
:101D90000400200007B0F0BDF0B587B005240500B1
:101DA0000800002D42D0E968043C81423EDC6969AC
:101DB00081423BDB9A4202DD11001A000B00AE6942
:101DC0000124964232DB296999422FDC8A4200DAEB
:101DD0000A009E4200DD1E00B41A631C03936B468A
:101DE00091B29B8980B20122FFF7B4FC041E1DD181
:101DF0000E270D2602ABFF18F6180F2302AA9B1818
:101E000031003A00A868FFF7ABFE03993B783278BF
:101E1000019102A9C97B200000912100FFF7BAFCC3
:101E2000041E03D12800FFF738FE0400200007B08D
:101E3000F0BDF0B585B000901E00009B0C001500B1
:101E40000520002B05D00A9BB14204D10098FFF772
:101E5000A3FF05B0F0BD9A4204D133000098FFF70C
:101E60004EFFF6E70098FFF732FF0A9A0290310022
:101E70000098FFF72CFF002703900197029B039A1D
:101E80001343DBB2002B65D01300029A1340DBB280
:101E9000002B5DD1039B002A00D0130001221342C6
:101EA0001CD0009BDB680193019A0A9B101B5B1BF3
:101EB0005843311B02F0C4FB47193A0001990098BE
:101EC000FFF705FF029B002B04D103900A97019EA8
:101ED000180001E03D00019C0290CFE7022213426E
:101EE00002D0009B5B69DEE7042213420BD0009B0B
:101EF0009F69331B781B58430A9B591B02F0A0FBB8
:101F000003190193D9E708221342D6D0009B1F6919
:101F1000EFE7019B002B15D031000A9A0098FFF7DC
:101F200026FE002895D1029BFF18002F02DD039B9F
:101F30003619FF1A0A9B01330A930A9BAB42E8DD6C
:101F4000002086E732000A99E8E701246442F4E7BA
:101F500001207EE70A9B0A9A5B1B954201DB0A9BE4
:101F6000EB1AA21BB44200DA321B01210191934209
:101F700007DC0A9B0A961E002B0025001C0000238C
:101F800001930A9B9D4205DC330026001C000A9B3E
:101F90000A951D000A9BEB1A0393331B0293A6427A
:101FA00001DAA31B0293039B5B42DF0FFF187F1034
:101FB000A642CADC0124C0E710B5031E0FD0046896
:101FC00000238C420BDC84688C4208DB4168914220
:101FD00005DCC168D00FCB1791424341DBB218003A
:101FE00010BD03688268934201DD0260836043682C
:101FF000C268934201DD4260C3607047F0B58BB0A8
:1020000006AC2300050045C945C30A6820001A60D4
:10201000FFF7E7FFEB68069A9A4200DA06936B69CE
:10202000A2689A4200DDA3602B6962689A4200DAD6
:102030006360AB69E2689A4200DDE3600E270D261B
:1020400002ABFF18F6180F2302AA9B1831003A00C2
:10205000A868FFF785FD089B069A07999C1A6A46AF
:10206000631C099C0698641A03930134A3B29289F5
:1020700089B280B2FFF76EFB00280FD103993B783D
:102080004C43327802A90194C97B00910100FFF70B
:1020900081FB002802D12800FFF7FFFC0BB0F0BD48
:1020A000F0B589B006930EAB1B7804000592079338
:1020B0000520002C24D00B00203B03385E2B1FD8BA
:1020C0002200283212788BB282421BD10A273A2989
:1020D00003D00137303B202915D1238C0220BB428D
:1020E0000ED90026E3690493069B0193019B069990
:1020F000A21D5B1AD27F9BB29A4206D870427041F1
:1021000009B0F0BD203B9FB2E7E7E31CDB7F012B6A
:1021100005D0022B20D0049ABB009B5801E0049B01
:10212000DB5D0293059B0393039B059A9D1A631D38
:10213000DB7FADB2AB4213D82200631D0832DB7FD8
:10214000D27F9B189D4229DB231DDB7FFF18019B5B
:10215000BFB201330193C9E7049A7B009B5AE0E7C1
:102160000122029B13420FD0019A03992000FFF72E
:10217000FEFC0128C4D8434258413618029B5B0834
:102180000293039B0133CEE7079B002BF6D06368D5
:10219000019A03992000FFF706FDEAE7079B002B51
:1021A0000BD0059B019A591920006368FFF7FBFCCF
:1021B0000128A5D84342584136180135ADB2BBE7D6
:1021C000F0B587B003930CAB40CB05001B7805201E
:1021D0000593002D13D0002911D02B0028331B7834
:1021E0000338002B0BD08B18049300230C00039FA3
:1021F0000293049BA34204D102984342584107B082
:10220000F0BD21780A2908D1AB1DDB7F039F9E1901
:10221000EB1DDB7F9E190134EBE7059B3A00009331
:1022200028003300FFF73CFF0128E8D8434258411B
:102230002A00029B08321B1802936B1DDB7FD27FA2
:102240009B18FF18E7E710B50523002806D01C30BF
:102250001022002904D102F032FC0523180010BD21
:1022600002F024FC0023F9E730B50B7A4C7A1B020C
:10227000240123434C684D78240623430C78AD0792
:10228000E4072C43CA68234303608B7A1402074A8D
:102290001B0722431343CA7A1204134343600B7C87
:1022A000012102688A431343036030BDB00000017E
:1022B0000722436893431943416070470122036832
:1022C0009343036070470123026813430360704720
:1022D000E0228021184BD2005B69890013408B42B9
:1022E0001DD007D8002B0DD080225200934220D061
:1022F000002008E0C02189008B4205D09342F7D12D
:102300000E4800E00E48704712200E4BDB6C1B0E8F
:10231000984280410C4B18400C4BC018F3E7122038
:10232000084BDB6C1B0E98428041094B1840094B4F
:10233000F3E70948E7E7C04600800C40406F4001E2
:10234000809FD500B081E00F400D030040420F0098
:1023500080E5F9FFC0CF6A00C0D8A70010B5094BCF
:10236000094A5C680021904205D9084A013190422F
:1023700001D90631214007205A6882430A435A6036
:1023800010BDC04600000C400024F4000048E801E5
:1023900070B5064C064BE56BE363FDF73BFFFFF7BB
:1023A000DDFF002D01D00023E36370BD00000C4071
:1023B000711B0000034B5A6DD20702D41A6D024202
:1023C000FCD1704700800C4070B5054C054BE56BA7
:1023D000E363FFF7C3FF002D01D00023E36370BD6B
:1023E00000000C40711B000000B502000006000F49
:1023F0000438092826D8012302F084F80524240C87
:10240000171D2424240F104B9B680F22012013401A
:10241000984009E00C4B5B68F7E70B4A5268120AD8
:102420001A4001329340180000BD084B9A4209D16E
:10243000054B9B6EE9E7064B9A4203D1024B032200
:102440001B6FE3E70120EFE700800C4080061200DD
:1024500090071A0010B503000006000F04380C00A6
:10246000092811D802F04EF80510101E3143101043
:102470001011080002F0D0F90F2226498B6893430F
:102480001032101A1843886010BD080002F0C4F919
:102490001E232049181A4A681F4B00021340184394
:1024A0004860F1E7FFF774FF200002F0B5F90F2252
:1024B00018494B6893431032101A18434860FDF7CF
:1024C000F9FE0021FFF780FFDEE7144A9342DBD1DB
:1024D0000420FFF76FFF200002F09EF90F220D4944
:1024E0008B6E93431032101A18438866CCE70C4A5F
:1024F0009342C9D14020FFF75DFF200002F08CF924
:10250000032204490B6F93431C32101A18430867C7
:10251000BAE7C04600800C40FFFEFFFF80061200B5
:1025200090071A0070B505000005000F01380E0075
:10253000092815D801F0E6FF0515211414181B14FD
:10254000141E00200E4CED03ED0E002801D0FFF705
:1025500031FF0122AA40AE40236893431E43266008
:1025600070BD0020074CEEE70120074CEBE7102080
:10257000064CE8E70020064CE5E70020054CE2E7C2
:1025800008800C4044800C4058800C4060800C4017
:1025900078800C4040800C4000B50F231840013873
:1025A000052804D801F0AEFF051A2D03033F0020D3
:1025B00000BDF02080221D4B8001DB6A52010340E8
:1025C00003209342F4D08022013892019342EFD04D
:1025D000174A9B18581E8341181DE9E70321134A27
:1025E000936A0B401800022BE2D006208B42DFD00A
:1025F0000800012BDCD0936A0238DB03D8D5093000
:10260000D6E70C21094A0220936A0B40082BCFD051
:1026100004308B42CCD00338042BC9D0936A0238E3
:10262000DB02C5D5EBE70720C2E7C04600800C40BF
:1026300000F8FFFF10B50400FFF7AEFF1A498C4207
:102640000AD01A4B9C420CD00300032B2AD8180046
:1026500001F058FF180C11140320154B9B6A03401E
:10266000F3E7134B9B6A1B079B0FEEE7FDF73AFE60
:102670000300180010BDFDF73BFEF9E7FDF71AFE59
:102680004308F6E78C4202D0084A9442F1D1084A46
:102690001020926A8C4200D00430C240E9D0FDF78D
:1026A00024FEE5E70023E4E702001E00030020000B
:1026B00000800C4070B5F8220300802192030400D2
:1026C000134049038B4257D01AD88022920293427A
:1026D00043D003D8002B10D0002070BD8022D2023E
:1026E000934232D0E02212039342F5D12448FFF7FF
:1026F00053FF072840D00928EED1FDF78FFDECE706
:10270000F02149038B422BD00ED8902252039342E2
:102710002AD0D02252039342DED11A48FFF78AFF13
:10272000194B03221B6F15E0802189038B4221D0B6
:102730009342D1D1FDF7BEFD05002000FFF754FE06
:102740000100280001F0F2FEC7E7FDF767FD0E4B20
:102750009B680F221340D840BFE7FDF7ABFDBCE7F5
:102760000A48FFF767FFB8E70848FFF763FF064B23
:102770009B6EEEE70348F4E7FFF7AAFDADE7C0461E
:1027800006000E000300200000800C4002001E0026
:1027900030B5042813D801F0B5FE1B170321130030
:1027A000082004230324104D00291BD02B62002A8B
:1027B00005D00123A3400D490A681A42FCD030BD60
:1027C000202010230524EEE7802040230724EAE799
:1027D0008020802380005B000924E4E7012302209D
:1027E0001C00E0E72862EAE700800C402C800C40E7
:1027F00010B50F240440012C04D0002C01D0032C70
:1028000020D910BD881E0328FBD801F07BFE1802DA
:1028100012150120032401221100FFF7B9FFFFF771
:10282000B7FD244B5C62FDF745FD0021FFF7CCFDB1
:10283000E7E702200400EEE703200124EBE7002095
:102840000424E8E7481E0928DBD801F051FE2A12CB
:102850001ADADA22DADADA05012200231549886A5F
:10286000022C21D1144C12042040034313438B62E9
:10287000C7E7012200201100FFF78AFF0022022390
:10288000ECE7012211001000FFF782FF0022012374
:10289000E4E70421094A13680B4313600022032371
:1028A000DCE700221300D9E712059B001343044A1A
:1028B0000240DBE700800C40FCFFFEFF40800C4044
:1028C000F3FFEFFF002800D162B67047EFF31080EE
:1028D00072B6704710B5FFF7F5FF10BDF7B508A940
:1028E0000E7809A901930C78072A21D8134D970077
:1028F0000723BB40B84029689640994308432860A5
:1029000001259540019BE943934094400C4F386862
:102910000840184338600B4803680B40334303609A
:10292000094B1D62094B1868014021431960F7BD2E
:102930001700083FBF00064DDAE7C04600610040BF
:10294000086100400C610040FC60004010610040E4
:1029500004610040F0B5002A08D024240125444336
:10296000194E8D40A419002B1CD02561242444430A
:10297000154D6419072917D80F268F00BE406568CA
:10298000B5431600BE4035436560002A09D10132C7
:102990008A40110024224243002B11D00A4BD21846
:1029A0001161F0BD6561E1E70F27084EA5688E193A
:1029B000B600B740BD431700B7403D43A560E4E70C
:1029C000014BD2185161ECE700600040F8FFFF3F77
:1029D000F8B5050014000800002A26D0032629684F
:1029E000124F1E40394029602A6833023A4013438F
:1029F0002B60002805D10E4B9D4202D10D48FFF7F8
:102A000059FE2B680C4B995D614300290DD0A40041
:102A1000E4436418201801F089FD2B6801389B07F6
:102A200002D5002800D101302861F8BDFFFCFFFF6E
:102A300000A0004000B20400F85900000122036821
:102A4000934319430160704770B5002343630B4BF8
:102A50000D0003630123497804004B400221026802
:102A60005B008A43134303602B7BAA686968FFF706
:102A7000AFFF29782000FFF7E1FF70BDFFFF0100E5
:102A8000F0B585B0A74A904200D0A1E100252E0004
:102A9000A5498B68087802934B880C7903900195BF
:102AA000C020976AC00007421DD001989E490028A7
:102AB00000D04B80002D00D00C71BB050FD5FD233D
:102AC0004B7009230B7037E0012603200390E7E7E2
:102AD000019500232E00F8E701250195E0E77B052D
:102AE000EFD5FE23ECE70398082800D964E101F054
:102AF00013FD0900390081009600B800D3000901D8
:102B00001D0150018848002E01D000260670019E4C
:102B1000002E00D04380002D00D00471029B588805
:102B20001B88C40618D506201B0A0340EA3003435D
:102B300001200870536250607B4B012019780929ED
:102B400008D10021516301229A56824200D1597066
:102B50000120185605B0F0BDFE2423408007E7D5BC
:102B60000120E4E7802007420CD0019E6E48002E31
:102B700000D04380002D00D00471802313637F3385
:102B80004B709EE0402007420BD167493F38002E32
:102B90003AD10198002800D04B80002DCCD00C7188
:102BA000CAE7106302984088C7060DD5019E5E48AB
:102BB000002E00D04380002D00D0047102230B7042
:102BC000029B1B785362B7E7800725D5019E5648C4
:102BD000002E00D04380002D00D004710723087917
:102BE0000B70029BC0001818038901208342B1D1E9
:102BF000082369E080200742B7D14020074205D171
:102C000049493E38002EC4D00870C2E710630298CC
:102C10004088800700D557E70126052056E742483F
:102C2000002E01D003260670019E002E00D04380A6
:102C3000002D00D00471029B5C881B88E0060DD536
:102C400006201B0A0340EA3003430420044201D05B
:102C500001242343087001215160B3E7FE200340A3
:102C6000F3E78020074200D07FE74020074204D1ED
:102C70002D493C38002E8CD0C6E71063029840885E
:102C80004007C9D501982849002800D04B80002D65
:102C900000D00C71072315E7029FE0003F183F8921
:102CA0009F421AD80420029B01345B88E4B218408A
:102CB0000125002800D00BE72B4007D01A4B588085
:102CC0001C7108230B70063B536035E7012C00D8BC
:102CD00002E7154843800471F3E7134F002E01D03B
:102CE00005263E70019E002E00D07B80002D00D076
:102CF0003C71029C201840685C1CC35C4C80536291
:102D00000623DFE68020074200D02EE7402007425E
:102D100005D10549002E00D13BE73A3874E710632E
:102D20007AE7C04600A00040080A00202A488446EE
:102D3000002E02D00720664630700198002801D08E
:102D400060464380002D01D063461C71BB0600D451
:102D5000F2E60879029BC000181803894C88D569EF
:102D6000A34203D94068661C4E80055560464088E2
:102D7000834204D8012BA4D107335360A1E7042177
:102D80005160012B00D8D7E6013B984200D0D3E632
:102D90002EE71149002E01D0082008700198002864
:102DA00000D04B80002D00D00C7180235B001F42AF
:102DB00000D1C1E6136384E6019E0748002E00D0CF
:102DC0004380002D00D00471FB234B70F23B79E669
:102DD00004204042BEE6C046080A002010B5184B49
:102DE000984202D00420404210BD9A68D20701D513
:102DF00020225A604A88900702D508890028F1D01D
:102E0000520702D50A8A002AECD0002001240D4A7C
:102E100010705470508010719160C0225A6040321E
:102E2000D96811420AD1084A05481A63FC22596B35
:102E3000D2000A435A63FFF723FED5E7D969EFE7CB
:102E400000A00040080A0020FFFF0100002804D075
:102E5000012801D1024B19607047024BFBE7C046C5
:102E60000C000840080008400121034A13688B4306
:102E7000184310607047C04600000840034B00280C
:102E800002D001221A6270471862FCE70000084075
:102E900042780378002A01D0022213438278002A64
:102EA00001D004221343014A136070470000084018
:102EB000F0B587B00B789C46002B01D102334360FC
:102EC00000234362CA788B78120400928F791B0624
:102ED000BA020192CF793A0202920A7A03924F78AB
:102EE0007A1E9741BA0104924F7A7A1E9741FA01ED
:102EF00005928F7ACE7A7A1E97410D7B0C79721EDD
:102F000096416A1E9541621E94414A797F01511E85
:102F10008A41009936010B430399ED000B43019957
:102F200064030B43029912070B4304990B43059961
:102F30000B431F4363463E4335432C432243026009
:102F4000002B01D00123436007B0F0BDF0B513782A
:102F500054789B06240623439479D77923439478A5
:102F6000167A24042343D478557A2403234314790E
:102F70000331A402234354790901240223439C46CC
:102F80007C1EA741741EA6416C1EA541947AD27A7C
:102F9000631E9C41634612077F05134336053B437E
:102FA0002D013343A4002B4323430B50F0BD0000FD
:102FB00070B504001500081E02D10548FFF77AFB22
:102FC0006900013801F0B2FA0002606170BDC046CC
:102FD000408104000A4B0B4AC36000230360426037
:102FE000094A83604361C3648264084A436590422E
:102FF00000D103658365904200D1C3657047C04628
:10300000AA0E000005100000F91F000000C40040D7
:1030100070B50D000400FFF7DDFF01212A8A236847
:103020001143AA7B0B43501E82419202134323603B
:103030002B7D2268591E8B415B0713432360AB7CB9
:10304000002B03D01023EA7C1343A36580232A7B43
:103050005B0113436360AA6869682000FFF7A8FF5B
:103060006B7B002B01D01023E3606B7D002B04D021
:10307000802322685B02134323602B78E36070BDDA
:10308000402302691A42FCD0416370474023026921
:103090001A42FCD0C163704700230B7070470000D8
:1030A00030B50022104C41612368934209D1206061
:1030B000836014E0491B9D6841611A00002D0FD008
:1030C0002B005D698D42F5D9002DF3D0002A09D07F
:1030D00090608360002B02D05A69511A596130BD4B
:1030E0002B00F5E72060F4E7280A002010B500F077
:1030F000C3F9094B094A1968002906D01368C41A94
:103100004B69A34203D31B1B4B61106003E0C01A41
:10311000002310604B6110BD280A0020180A00200F
:1031200010B5064B02201B685C69054B1B68E41850
:1031300000F0B2F9200000F0D9F910BD280A0020F3
:10314000180A002070B50400160004AA0D0002CA77
:103150002661107806AA2071002012882160A060E4
:10316000E360E280854207D16561834201D020009F
:103170009847002E12D03500FFF7A8FB0600FFF796
:10318000B5FF29002000FFF78BFF054B1B68A3420A
:1031900001D1FFF7C5FF3000FFF79CFB002070BD99
:1031A000280A002010B5002103000E4C2268002AD6
:1031B00011D09A420CD19A68002910D08A609A687E
:1031C000101E0BD05B6951690020CB18536105E0DC
:1031D00011009268EBE70220002BECD010BD2260BA
:1031E000EDE7C046280A002070B5FFF76FFB114DD0
:1031F00006002C78002C18D10F4B1C600F4B1C6064
:103200000F4B1C8000F010F9012000F045F900F090
:103210009BF90C4B020018600B4923000B4801F08E
:1032200019FB0B4B186001232B703000FFF752FB8A
:10323000002070BD140A0020280A0020180A00206F
:10324000200A0020240A0020E703000018FCFFFFEA
:103250001C0A002070B505000C002220002D10D0A3
:1032600000290ED000230B70FFF730FB0121084B23
:103270001B68002B02D02278002A03D0FFF72AFB1C
:10328000002070BD9D4201D12170F2E79B68F0E7FC
:10329000280A0020F0B58BB01725059310AB1B78DA
:1032A0000400069311AB1B880E00079304ABED18C6
:1032B000002317002B7022209C4212D029002000EE
:1032C000FFF7C8FF2A780320002A0AD1079B3100A4
:1032D0000293069B20000193059B00933B00FFF7A0
:1032E00031FF0BB0F0BD000010B5FA21034B89008F
:1032F0001B68584301F01AF9013010BD240A002060
:1033000010B58AB00F2401236C442370FFF7ECFF43
:103310000023010001930093054A230004A8FFF74E
:10332000B9FF002802D12378002BFCD10AB010BDD0
:1033300099300000F7B50400C3070CD5374A13884D
:1033400001339BB21380FFF7D1FE354B1B68002B76
:1033500001D0FFF7E5FEA3071AD500F08DF8314F35
:1033600005003B68C31A0093FFF7B0FA06002C4B28
:103370001C68002C4ED06369009A934209D9009AC8
:103380003D609B1A6361FFF7CBFE3000FFF7A2FAA6
:10339000F7BD2300009A3D605969914209D8207910
:1033A00084461879844500D91C009B68521A002B6A
:1033B000F2D13000FFF78EFA636901930023636155
:1033C000FFF784FA06002000FFF7ECFE3000FFF75D
:1033D00081FA2369002B09D0FFF778FA06002169EA
:1033E0002000FFF75DFE3000FFF774FAE368002B62
:1033F00002D021682000984700F03EF8019B0400AD
:103400005D19009B5D1B43190093FFF75FFA2500D0
:103410000600ACE7022000F057F8B6E7200A0020CB
:10342000280A0020180A002013B5104C01212000A2
:10343000FFF710F801212000FFF774F800240123A2
:1034400001A8037084704470FFF722FD0721084B28
:10345000DA698A43DA61802299615C607A31054BCE
:103460005201FF315A501A6013BDC0468006120047
:103470000000084000E100E0054A064B50681B7858
:103480001169C90701D5506801331B0618437047FD
:1034900000000840300A00200122024013000849C1
:1034A000800709D5074B1878002803D004208861CD
:1034B0000020187004231343CA691343CB6170477B
:1034C000000008405C000020012302001A40810730
:1034D00003D504210A4303490B700349CB69934385
:1034E000CB6170475C0000200000084010B504006C
:1034F000FFF7C2FF114B1A69114B520706D41A6825
:10350000121A022A02D81A68824212D1221A012AF9
:1035100000D8841C1C601A68101A0A4A904209D804
:10352000196801200902090AFFF790FC0220FFF741
:10353000B3FF10BD0220FFF7C7FFFAE70000084005
:103540002C0A0020FFFFFF0010B50248FFF7B2F879
:1035500010BDC04680061200F8B5FFF7B7F90700A6
:103560000120174E00243569054219D08022154BE1
:1035700052041C782406A418624254411A78E4B21A
:103580001218D2B21A70104A126819780F4B090635
:10359000511A994204D8FFF759FC0220FFF77CFF2B
:1035A0006B0701D502231C4305231D40B561002C88
:1035B00002D02000FFF7BEFE3800FFF78BF9F8BD00
:1035C00000000840300A00202C0A0020FFFFFF0006
:1035D00024220A4B0001C15C1B184A430849002001
:1035E000521812685968CA40D20705D458892D3834
:1035F000FF3843425841C0B27047C04660000020C7
:103600001C600040FA22064B00011B1899895200E9
:103610000020914203D8587A0238434258417047FB
:1036200060000020F7B52423224D0601725DAC191D
:103630005343214A07009B181B686268D34001224C
:103640001A40019228D163890A336381FFF7C0FFD2
:10365000002819D0637A38000133DBB200936B463F
:103660001B786372FFF7CEFF031E07D06B46032063
:103670001B7963720023AD19AB81FEBD009A012056
:10368000022AF7D16372F5E7FA2362899B009A4216
:10369000F3D160720220F0E7FA22A38952000A33C4
:1036A0009BB2A381934201D1002363720020AD1924
:1036B0006881E2E7600000201C60004010B5002037
:1036C000FFF7B0FF012807D002280CD0FA21002014
:1036D000890000F029FD10BD094B58780028F5D16C
:1036E00000F010FDF2E70122054B59784A405A706C
:1036F0001B78002BEAD00020FCF744FDE6E7C0462B
:103700003A0A002010B50120FFF78CFF012807D0EE
:1037100003280CD0FA210120C90000F005FD10BDDE
:10372000084BDB79002BF5D100F0ECFCF2E701202F
:10373000044BDA794240DA719B79002BEAD0FCF72E
:1037400021FDE7E73A0A002010B50120FFF76AFFE4
:10375000012807D10321044A137801330B40137069
:1037600000F0F4F910BDC046460A002010B5002054
:10377000FFF758FF01280BD10A4B1878032807D808
:1037800000F0C0FE02070A0D00F0F6FC00F0DEF9C2
:1037900010BD00F005FDF9E700F02AFDF6E700F0A6
:1037A00043FDF3E7460A002010B52C220B4B000125
:1037B00018184089FF32002490420DD909015B1886
:1037C0005B89934208D9C01A01F032F99622C30FDF
:1037D000520082425C41E4B2200010BD6000002033
:1037E00010B52422114B19784A4311495218126816
:1037F0005968CA40D20714D45A890A325A812422FD
:10380000197C4A430A49521812685969CA40D207BA
:1038100009D45A8B0A325A8301210020FFF7C4FFD2
:1038200010BD0022EAE70022F5E7C0466000002054
:103830001C60004010B59623084A5B00518B9942EA
:1038400004D1002406498C730121017052899A42E7
:1038500003D10123024A9373037010BD600000205E
:103860009400002010B5FCF77FFD154C2078FCF784
:103870006BFD00280DD0A078FCF766FD002808D16C
:1038800060780A30C0B260700A3843425841C0B212
:1038900010BDA078FCF758FD00280DD02078FCF76B
:1038A00053FD002808D1E0780A30C0B2E0700A3831
:1038B000434258414000EBE700206070E070E7E7CA
:1038C0008000002070B505000C00FFF7CBFF022838
:1038D00007D12378632B03D81933237001232B706E
:1038E00070BD0128FCD12378002BF9D0193B23703F
:1038F0002870F5E710B50400FFF7B4FF022817D1D0
:10390000144B9A7B012A05D15A89182A0BD8053203
:103910005A8108E0002A06D190219A89FF318A4213
:1039200001D805329A810123237000F09BFC10BD61
:103930000128FCD1074B9A7B012A04D15A89002A1D
:10394000F1D0053AE4E7002AEDD19A89002AEAD0BD
:10395000053AE7E7940000200022054B1A70054A5B
:1039600011680A8852085A804A8852089A8070471B
:10397000320A00209C0A0020034B5888DB88C31AB7
:10398000D817C01AC00F7047320A0020064A01201B
:103990005388D2889B18054A12681288934200DB2C
:1039A0000020C0B27047C046320A00209C0A0020A6
:1039B000034B9888DB88C31AD817C01AC00F70470A
:1039C000320A0020064A01209388D2889B18054AB3
:1039D00012685288934200DB0020C0B27047C04694
:1039E000320A00209C0A002010B5274BC0211A681B
:1039F0002648FDF797F8002807D0012812D1244B5C
:103A00001A78042A02D105221A7010BD0221100072
:103A10008843012802D11E4B0222F5E7062AF2D084
:103A20000722F1E7022810D1194A1378191F01293A
:103A300002D8174B0622E7E7013B012B02D8144BB3
:103A40000322E1E708231370DFE703280CD11049B4
:103A50000B78072BDFD09A1FFA300242EFD0052BEC
:103A6000D9D001230B70D0E70428CED1084A1378AF
:103A7000082BDED0072B01D10523E4E7022BFBD076
:103A8000032BD6D01070C0E7680A002000A00040C9
:103A9000320A002010B52C4C20780138072852D863
:103AA00000F030FD39402E12041A4B26FFF76EFF4E
:103AB000002846D0FFF77CFF002842D063880133FE
:103AC0006380A388013B19E0FFF760FF002838D02E
:103AD00063880133638036E0FFF758FF002830D059
:103AE000FFF770FF00282CD063880133638003E068
:103AF000FFF768FF002824D0A3880133A38022E0C9
:103B0000FFF73AFF00281CD0FFF75CFF002818D011
:103B10006388013BEAE7FFF72FFF002811D0638895
:103B2000013BD7E7FFF728FF00280AD0FFF740FF47
:103B3000002806D06388013BC2E7FFF739FF002861
:103B4000BFD10023237010BD320A0020F7B5052530
:103B500000262F4C2000FDF786FF2E492000FEF79F
:103B600072FB2B000196009530222B492000FEF7B6
:103B700027FB0F230196009330222B0027492000BA
:103B8000FEF71EFB19230196009330222B002449D7
:103B90002000FEF715FB234B234F1B78234A0133EC
:103BA0003021380000F094FF380000F0C3FF2823D4
:103BB0000200009339002B0001962000FEF700FB65
:103BC00037230196009330222B0019492000FEF77D
:103BD000F7FA41230196009330222B00154920006B
:103BE000FEF7EEFA50230196009330222B00124983
:103BF0002000FEF7E5FA5A23302200930F492B00EC
:103C000001962000FEF7DCFAFDF7CEFEF7BDC046B8
:103C10009C0A0020C8560000595B00005F5B000052
:103C2000685B0000460A00206C0A0020725B0000FE
:103C3000805B00008C5B00009B5B0000A75B0000CA
:103C4000F7B5364C05252000FDF70DFF344920005F
:103C5000FEF7F9FA334B344F1B78344A01333021E5
:103C6000380000F035FF3800002600F063FF2B001D
:103C700002003900019600952000FEF7A1FA2C49B8
:103C80002000FEF7E0FA14230196009330222B0067
:103C900028492000FEF794FA1E2301960093302253
:103CA0002B0025492000FEF78BFA2D230196009367
:103CB00030222B0021492000FEF782FA372301969B
:103CC000009330222B001E492000FEF779FA46238C
:103CD0000196009330222B001A492000FEF770FA5B
:103CE00050230196009330222B0017492000FEF745
:103CF00067FA5F230196009330222B0013492000BE
:103D0000FEF75EFA69233022009311492B000196D9
:103D10002000FEF755FAFDF747FEF7BD9C0A00208C
:103D2000C8560000460A00206C0A0020725B0000A2
:103D300098530000FC590000325A00000F5A00004E
:103D4000225A0000375A00006B5A00004A5A0000FD
:103D50005B5A0000F7B500260700114C11492000FE
:103D6000A660FEF74BF9104B10492000A360FEF748
:103D70006AFA0F4D3B000F4A3021280000F0A8FEE0
:103D8000280000F0D7FE14230200009329004133DD
:103D900001962000FEF714FAFDF706FEF7BDC046B7
:103DA0009C0A002084000020FFFFFF00C85600008E
:103DB0006C0A00207A5A0000F7B5294C052520002E
:103DC000FDF751FE27492000FEF73DFA264B274F0D
:103DD0001B78274A01333021380000F079FE380083
:103DE00000F0A8FE002602002B0039000196009585
:103DF0002000FEF7E5F914233022009301962B00F2
:103E00001C492000FEF7DCF91B492000FEF71BFAD5
:103E100023230196009330222B0018492000FEF73F
:103E2000CFF92D230196009330222B001449200056
:103E3000FEF7C6F93C230196009330222B0011496E
:103E40002000FEF7BDF94623302200930E492B00D7
:103E500001962000FEF7B4F9FDF7A6FDF7BDC046B8
:103E60009C0A0020C8560000460A00206C0A002068
:103E7000725B0000055B000098530000105B0000BF
:103E8000215B0000345B0000445B0000F0B585B0AE
:103E900003780290002B00D1FAE0804C0525200029
:103EA000FDF7E1FD7E492000FEF7CDF9FA217D4BBB
:103EB00089001B6800261800039300F0C1FB7A4FAD
:103EC00003007A4A3021380000F002FE380000F08A
:103ED00031FE2B0002000196009539002000FEF70C
:103EE0006FF9704B0A215E68300000F0A9FB0A21CF
:103EF0000390300000F08AFC039B6D4A009138006B
:103F0000302100F0E5FD380000F014FE00261423F7
:103F100002000196009339002B002000FEF750F9B3
:103F2000604B644A1B893021380000F0D1FD380015
:103F300000F000FE232302000196009339002B00BD
:103F40002000FEF73DF92F22236831001B88200056
:103F50000092FDF76EFF584D019637362900009606
:103F6000192330222000FEF72BF9002329000096A8
:103F700041250026019330224C332000FEF720F922
:103F800001960095142330224C492000FEF718F9C1
:103F9000302201960095492349492000FEF710F987
:103FA000404B0A219E89300000F0C0FA0A2185B2F8
:103FB000300000F041FB89B22B00424A00913800EA
:103FC000302100F085FD380000F0B4FD00264B25BF
:103FD000020001961423390000952000FEF7F0F846
:103FE000304B0A215E89300000F0A0FA0A2183B22A
:103FF0003000039300F020FB89B2039B314A00910B
:104000003800302100F064FD380000F093FD0026F8
:1040100002004C230196009539002000FEF7D0F8ED
:104020005522204B9B7B0092012B33D147216833D3
:104030002000FDF7FEFE24492000FEF704F90025CC
:104040005A23302200932149553B01952000FEF769
:10405000B7F86423302200931D495F3B019520008F
:10406000FEF7AEF86E23302200931A49693B0195A2
:104070002000FEF7A5F87823302200931649733B01
:1040800001952000FEF79CF8FDF78EFC029B1D7049
:1040900005B0F0BD35231221CAE7C0469C0A0020B6
:1040A000C8560000940000206C0A0020705A0000DE
:1040B0007F5A00008F5A00009C5A0000A05A00004E
:1040C000A55A0000AA5A000098530000B05A0000F8
:1040D000C55A0000DA5A0000F05A000010B5074C2B
:1040E0002000FDF7C0FC06492000CB888A8849885B
:1040F000FDF7E7FDFDF758FC10BDC0469C0A002007
:10410000320A002010B50622012342430549545CBF
:104110006340535402D0FCF74DF810BDFCF732F861
:10412000FBE7C0463A0A002070B5062444430A4D16
:1041300006002C196378002B0CD063888B4203D1C6
:10414000FFF7E0FF00236380062070432D186B8883
:104150000A336B8070BDC0463A0A002010B50020BB
:10416000FCF710F80120FCF70DF80022014B5A7003
:10417000DA7110BD3A0A002010B5FFF761FD012188
:104180000020FFF711FB0400FFF798FAFFF7BAFAD7
:104190000A2000F015F9002CF1D0FFF7DFFF10BD69
:1041A00073B56B469C1D01232370FFF705FE6B461C
:1041B000DD1D00232B70FFF713FB290006002000F4
:1041C000FFF780FB2378002B07D0287800F0D2F887
:1041D0002878FFF7BFFD002323700A2000F0F0F8D5
:1041E000002EE8D00022014B5A6373BD000001404D
:1041F00037B56B46DC1D00232370FFF7F1FA05008D
:104200002000FFF777FB200000F0BEF82000FFF74A
:1042100011FB2000FFF73AFE0A2000F0D1F8002D34
:10422000EBD0FFF79BFF37BD70B50A25FFF794FB76
:104230006D42FFF7D5FA0400FCF7F2FD290000F00B
:10424000FFF9074B1430D880FFF7CEFBFFF722FCB5
:10425000FFF744FF0A2000F0B3F8002CE9D070BD4E
:10426000320A002010B50D4C00206289A3899B18EA
:1042700062689A420BDDFBF79DFF6289A3890120EA
:104280009B1A62689A4205DAFBF794FF10BDFBF7B0
:1042900079FFF2E7FBF776FFF8E7C04694000020CD
:1042A00037B50B4C0B4D231D220082212800FDF752
:1042B0002BF9220001AB0832C0212800FCF7EAFBF1
:1042C0006068642100F0BCF96060FFF7CBFF37BD88
:1042D0009400002000A0004010B5064C0022C02130
:1042E0002000FCF727FD0122C0212000FCF7B6FBCF
:1042F00010BDC04600A0004070B588B0012119482B
:10430000FEF710F901211848FEF70CF9002301AD62
:10431000190018000422FEF71DFB0C2200212800C2
:1043200000F0CDFB01260323104CAB716E712A0007
:10433000200004AD0021FEF709FE0D220021280017
:1043400000F0BDFBA26A0A4B2E701343A3620A233E
:104350002900E3612000FEF7ABFD0023636308B092
:1043600070BDC0460072040000020400000001405D
:104370000100040010B50A2100F062F9014B5863F6
:1043800010BDC0460000014070B59622074C0500E4
:1043900023885200934206D1FFF782FF01232B703E
:1043A0000023238070BD0A33FBE7C046480A002083
:1043B000024A1368013313607047C046680A002040
:1043C000034A116813685B1A8342FBD37047C046E7
:1043D000680A002070B588B00124354B02AD1C641A
:1043E000FBF7B4FE2A00334B43CB43C243CB43C25B
:1043F0003148FEF75FF9FA21890000F097F82F4B5A
:104400000138984252D8C0212D4A090650602D48E3
:104410000026036A1B021B0A0B43036207239660F4
:104420001360FCF739F83000FDF782FA2648FDF7F3
:104430006DFB0222230010000821FEF78BFA0822F0
:1044400033001100019400940220FEF747FA022283
:10445000230010000921FEF77DFA09223300110024
:10446000022001940094FEF739FAFFF745FFFFF7A9
:104470006DFB21001548FEF755F802211448FEF7A0
:10448000B7F9FEF7B1FE2800FCF7FAF92200C021C7
:104490001048FCF74FFC2200C0210E48FCF7DEFA62
:1044A000FBF7A2FFFFF718FF08B070BDFEE7C0469C
:1044B00000000C40B85B000070000200FFFFFF002E
:1044C00010E000E000ED00E09C0A0020D0233E0058
:1044D00002001E0000A0004010B5FFF77BFFFFF7B1
:1044E00033F9FFF743F90A20FFF76AFFF7E7000007
:1044F00002B4714649084900095649008E4402BC7D
:104500007047C04602B4714649084900095C490039
:104510008E4402BC7047C04603B47146490840004F
:104520004900095A49008E4403BC704700224308E1
:104530008B4274D303098B425FD3030A8B4244D36B
:10454000030B8B4228D3030C8B420DD3FF220902AD
:1045500012BA030C8B4202D31212090265D0030B6C
:104560008B4219D300E0090AC30B8B4201D3CB0362
:10457000C01A5241830B8B4201D38B03C01A5241A4
:10458000430B8B4201D34B03C01A5241030B8B42A6
:1045900001D30B03C01A5241C30A8B4201D3CB0291
:1045A000C01A5241830A8B4201D38B02C01A524176
:1045B000430A8B4201D34B02C01A5241030A8B4279
:1045C00001D30B02C01A5241CDD2C3098B4201D391
:1045D000CB01C01A524183098B4201D38B01C01A0F
:1045E000524143098B4201D34B01C01A5241030986
:1045F0008B4201D30B01C01A5241C3088B4201D335
:10460000CB00C01A524183088B4201D38B00C01AE1
:10461000524143088B4201D34B00C01A5241411A08
:1046200000D20146524110467047FFE701B5002015
:1046300000F0F0F802BDC0460029F7D076E77047D9
:1046400003460B437FD4002243088B4274D30309F3
:104650008B425FD3030A8B4244D3030B8B4228D394
:10466000030C8B420DD3FF22090212BA030C8B42BA
:1046700002D31212090265D0030B8B4219D300E05A
:10468000090AC30B8B4201D3CB03C01A5241830BDF
:104690008B4201D38B03C01A5241430B8B4201D38F
:1046A0004B03C01A5241030B8B4201D30B03C01AB8
:1046B0005241C30A8B4201D3CB02C01A5241830A32
:1046C0008B4201D38B02C01A5241430A8B4201D361
:1046D0004B02C01A5241030A8B4201D30B02C01A8B
:1046E0005241CDD2C3098B4201D3CB01C01A5241F2
:1046F00083098B4201D38B01C01A524143098B427B
:1047000001D34B01C01A524103098B4201D30B0163
:10471000C01A5241C3088B4201D3CB00C01A524188
:1047200083088B4201D38B00C01A524143088B424D
:1047300001D34B00C01A5241411A00D201465241E6
:10474000104670475DE0CA0F00D04942031000D305
:104750004042534000229C4603098B422DD3030A5A
:104760008B4212D3FC22890112BA030A8B420CD36A
:10477000890192118B4208D3890192118B4204D393
:1047800089013AD0921100E08909C3098B4201D313
:10479000CB01C01A524183098B4201D38B01C01A4D
:1047A000524143098B4201D34B01C01A52410309C4
:1047B0008B4201D30B01C01A5241C3088B4201D373
:1047C000CB00C01A524183088B4201D38B00C01A20
:1047D0005241D9D243088B4201D34B00C01A5241F7
:1047E000411A00D20146634652415B10104601D384
:1047F0004042002B00D54942704763465B1000D30E
:10480000404201B5002000F005F802BD0029F8D0B3
:1048100016E770477047C0461C2101231B049842CD
:1048200001D3000C10391B0A984201D3000A083941
:104830001B09984201D30009043902A2105C4018F8
:104840007047C0460403020201010101000000009C
:1048500000000000002B11D1002A0FD1002900D147
:10486000002802D00021C943081C07B4024802A155
:104870004018029003BDC0469DFFFFFF03B4684689
:1048800001B5029800F006F8019B9E4602B00CBCF0
:104890007047C046F0B54F464646D646C0B5040000
:1048A00082B00D00914698468B422FD82CD04146BD
:1048B000484600F0B1F829000600200000F0ACF8EE
:1048C000331A9C46203B9A4600D576E04B4652462A
:1048D00093401F004B46624693401E00AF4228D8CB
:1048E00025D05346A41BBD41002B00DA7BE00022FB
:1048F0000023009201930123524693400193012328
:1049000062469340009318E08242D0D900220023EF
:10491000009201930A9B002B01D01C605D600098FF
:10492000019902B01CBC90469946A246F0BDA34234
:10493000D7D900220023009201936346002BE9D0CF
:10494000FB079846414672080A437B0866460EE01C
:10495000AB4201D1A2420CD8A41A9D4101202419D6
:104960006D410021013E24184D41002E06D0AB427E
:10497000EED9013E24196D41002EF8D1009801991D
:10498000534600196941002B23DB2B005246D340CC
:104990002A006446E2401C0053461500002B2DDB24
:1049A00026005746BE40330026006746BE40320010
:1049B000801A994100900191ACE7624620239B1A2E
:1049C0004A46DA406146130042468A4017001F43B8
:1049D00080E7624620239B1A2A0066469A402300FD
:1049E000F3401343D4E76246202300219B1A0022A0
:1049F000009101920122DA40019280E72023624671
:104A000026009B1ADE402F00B0466646B740464659
:104A10003B003343C8E7C04610B5002903D1FFF778
:104A2000FBFE203002E0081CFFF7F6FE10BDC0467A
:104A3000C317C01858407047084B10B50400002B2E
:104A400002D0002100E000BF054B1868836A002BEC
:104A500000D09847200000F061FCC0460000000034
:104A6000D05B000070B500260C4D0D4C641BA410EB
:104A7000A64209D1002600F053FC0A4D0A4C641BE3
:104A8000A410A64205D170BDB300EB58984701367B
:104A9000EEE7B300EB5898470136F2E70801002033
:104AA00008010020080100200C010020002310B59F
:104AB0009A4200D110BDCC5CC4540133F8E7030026
:104AC0001218934200D1704719700133F9E70000C2
:104AD0000CB430B5164B9DB00C1E1D6808DA8B2344
:104AE00001202B6040421DB030BC08BC02B018470A
:104AF000822302A99B008B810023029008619C42C3
:104B000000D0631E8B604B6101235B42CB81209AF6
:104B100021AB2800019300F077F8431C01DA8B23C6
:104B20002B60002CDFD00023029A1370DBE7C04615
:104B3000A40000200023C25C0133002AFBD1581ED0
:104B400070470000F0B58E6885B007000C00039236
:104B500001939E423CD890238A89DB001A4234D0CC
:104B60000325096923685B1A0293636902985D4310
:104B7000EB0F5D19019B6D1001331B18AB4200D97F
:104B80001D00530532D52900380000F019FB061E20
:104B900009D10C233B6040230120A28940421343EA
:104BA000A38105B0F0BD029A2169FFF77FFFA389B9
:104BB000144A1A4080231343A381029B2661F618EE
:104BC00026606561019EED1AA560019B9E4200D999
:104BD000019E32000399206800F095FAA368002036
:104BE0009B1BA36023689E192660DAE72A00380021
:104BF00000F044FB061EE0D12169380000F096FA6F
:104C0000C7E7C0467FFBFFFFF0B59FB0029005935A
:104C10008B890F0016001B0611D50B69002B0ED1D6
:104C2000402100F0CDFA38603861002805D10C230E
:104C3000029A013813601FB0F0BD40237B6100234E
:104C400006AC6361203363761033A37635002B788E
:104C5000002B01D0252B46D1AB1B04930CD0320086
:104C600039000298FFF76EFF431C00D1AEE0626985
:104C7000049B9446634463612B78002B00D1A5E02C
:104C8000012200235242626002A9543252186E1C63
:104C90002360E360A3601370A36531780522544854
:104CA00000F026FA751C00281FD12268D30604D50F
:104CB000532302A95B1820211970130704D553232D
:104CC00002A95B182B21197033782A2B16D03500D6
:104CD00000210A20E3682A786E1C303A092A4ED94E
:104CE000002918D010E00135B1E7414B2268C01A05
:104CF00001238340134323602E00CEE7059B191D3B
:104D00001B680591002B01DB099304E05B42E36023
:104D10000223134323602B782E2B0AD16B782A2B86
:104D200035D1059B02351A1D1B680592002B2BDB24
:104D30000793304E29780322300000F0D9F900287B
:104D400006D04023801B8340226801351343236033
:104D50002978062228486E1C217600F0C9F900281F
:104D60003CD0264B002B25D10722059B07339343CC
:104D7000083305936369039A9B18636166E74343AD
:104D800001219B183500A6E701235B42D0E70023F1
:104D90000A201A000135636029786E1C3039092910
:104DA00003D9002BC5D00792C3E742430123521811
:104DB0003500F1E705AB00933A00114B2100029852
:104DC00000E000BF0390039B0133D3D1BB890B9854
:104DD0005B0600D42FE7012040422CE705AB00938F
:104DE0003A00074B2100029800F07AF8EAE7C04643
:104DF000D45B0000DA5B0000DE5B00000000000016
:104E0000454B0000F7B5150001938A680B690090C7
:104E10000C00934200DA130022002B604332127818
:104E2000002A01D001332B6023689B0602D52B6832
:104E300002332B60062723681F4027D0230043330B
:104E40001B785A1E93412268920630D422000199A1
:104E500043320098089EB047431C25D006232068A3
:104E60002A68E16803400025042B03D18D1AEB4327
:104E7000DB171D40A3682269934201DD9B1AED18E0
:104E80000027BD4220D1002010E00137E3682A68E6
:104E90009B1ABB42D2DD22000123193201990098EE
:104EA000089EB047431CF0D101204042FEBD302097
:104EB000E1184331087021005A1C45310978A218C5
:104EC000433202331170C1E7220001231A320199E3
:104ED0000098089EB047431CE6D00137D1E7000098
:104EE000F0B589B004920A00433205930390029210
:104EF0000A7E0C000E9B6E2A00D186E01FD8632A22
:104F000033D008D8002A00D18CE0582A4DD0250093
:104F100042352A7030E0642A01D0692AF7D1196835
:104F200025680A1D280629D508681A60002803DAB2
:104F30002D23029A404213706B4E0A274FE0732ACA
:104F400074D008D86F2A1FD0702AE0D120220968B7
:104F50000A43226003E0752A16D0782AD7D12200AE
:104F6000782145321170614E22E025001A684235E1
:104F7000111D196013682B70012365E008681A6021
:104F80006906D3D500B2D1E719682568081D1860F5
:104F900008682E0605D5544E08276F2A1BD00A270D
:104FA00019E06D06F7D580B2F5E745314E4E0A702F
:104FB00018682268011D00681960150621D5D307FD
:104FC00002D520231A4322601027002803D1202372
:104FD00022689A4322602300002243331A706368D8
:104FE000A360002B58DB0422216891432160002834
:104FF00054D1029D002B5AD02500337842352B70B6
:1050000055E05506DBD580B2D9E71A680D68101D4A
:105010004969186013682E0601D5196002E06D0613
:10502000FBD519800023029D23614FE01A68111DF2
:105030001960156800216268280000F059F80028FE
:1050400001D0401B6060636823610023029A1370E3
:105050003CE023692A0004990398059DA847431C56
:105060003ED023689B0715D4079BE068984239DA45
:10507000180037E022000123193204990398059E95
:10508000B047431C2CD00135E368079A9B1AAB420A
:10509000F0DCE9E70025F7E70028ADD0029D3900F4
:1050A000FFF7CAFA735C013D2B700028F7D1082F77
:1050B00009D12368DB0706D563682269934202DCC5
:1050C0003023013D2B70029B5B1B2361059B07AACC
:1050D00000932100049B0398FFF794FE431CB8D172
:1050E0000120404209B0F0BDE55B0000F65B000026
:1050F000C9B28218904201D10020704703788B42D8
:10510000FBD00130F6E710B5884202D98B189842DF
:1051100003D3002307E08B5C8354013AFBD210BD1C
:10512000CC5CC45401339A42FAD1F8E770B505005B
:10513000002910D00C1F2368002B00DAE418280087
:1051400000F0D4F81D4A1368002B05D16360146089
:10515000280000F0CCF870BDA34209D9216860187E
:105160008342F3D118685B6841182160EEE71300B1
:105170005A68002A01D0A242F9D919685818A042E9
:105180000BD120680918581819608242E0D11068C4
:105190005268411819605A60DAE7A04202D90C231C
:1051A0002B60D5E721686018824203D110685268ED
:1051B0004118216062605C60CAE7C0464C0A00206A
:1051C000032370B5CD1C9D43083506000C2D1ED25F
:1051D0000C25A9421DD8300000F088F8254A146833
:1051E0002100002919D1244C2368002B03D1300061
:1051F00000F06AF820602900300000F065F8431CD8
:105200002BD10C233000336000F071F803E0002D47
:10521000DFDA0C233360002070BD0B685B1B19D4F0
:105220000B2B03D90B60CC18256003E04B688C4234
:105230000DD11360300000F05AF8200007220B3027
:10524000231D9043C31AE7D05A42E250E4E763605B
:105250000C00EFE70C004968C3E70323C41C9C4320
:10526000A042E1D0211A300000F02EF8431CDBD11F
:10527000C7E7C0464C0A0020500A0020F8B50700D6
:105280000D001600002905D11100FFF799FF040059
:105290002000F8BD002A03D1FFF748FF3400F7E7EC
:1052A00000F026F82C00B042F2D231003800FFF7AF
:1052B00087FF041EECD029003200FFF7F7FB29001E
:1052C0003800FFF733FFE3E7002370B5064C050015
:1052D0000800236000F014F8431C03D12368002B5E
:1052E00000D02B6070BDC046C80A002070477047D0
:1052F0000B1F1B68181F002B01DA0B58C0187047D2
:10530000044A1368002B00D1034B181810601800D2
:105310007047C046540A0020D00A0020FEE7C0466D
:10532000F8B5C046F8BC08BC9E467047F8B5C04604
:10533000F8BC08BC9E467047020000000A0000004E
:10534000020000000B000000000000000700000049
:10535000070503003D0000000100000000000001FF
:10536000010000005368617270204C5330313342A9
:10537000374448303320233100000000050000008E
:105380000000000040420F00050100000000000086
:105390000000000001000100A85300002003016488
:1053A000060802000100000000040A0A04030606C1
:1053B00008020000000000000E040E1F081F0C1F52
:1053C0000E0E00001000010E0E0E0F0E071F1F0E16
:1053D000110E1C110111110E0F0E0F1E1F111111B4
:1053E00011111F0E000E04000200010010000C003D
:1053F0000104080106000000000000000200000097
:105400000000000C040600000000000000040A0A6E
:105410001E1309040404040400000000110611080E
:105420000C010210111106060800021110111111D1
:105430000901011111040809011B111111111101B8
:10544000041111111111100200080A0004000100DA
:105450001000121E01000001040000000000000006
:10546000020000000000000204080200000000002A
:1054700000040A1F010805020208150400000010BC
:10548000190410040A0F010811110606041F041064
:105490001011110111010101110408050115131169
:1054A00011111101041111110A1108020108110052
:1054B000080E0D0E160E02110D060C09040B0D0E32
:1054C0000F160D0E0711111111111F0204081500FE
:1054D000000000000004000A0E04020002080E1F73
:1054E000001F00081504080809100F040E1E000014
:1054F0000200080816110F01110F0F1D1F040803E9
:10550000011515110F110F0E04111115040A0402D3
:1055100002080000001013011911071113040805F7
:105520000415131111191301021111110A110801A7
:1055300004100800000000000000001F1002150009
:105540000208150406000004130404101F101102C1
:1055500011100606041F0404151F11011101011189
:105560001104080501111911011505100411111577
:105570000A04020204080000001E1101111F021E8D
:1055800011040803041511110F1E010E021111154B
:10559000041E040204080000000000000000000ACD
:1055A0000F19090004040404040006021104021186
:1055B000081111021108060408000200151111114A
:1055C0000901011111040909011111110109091041
:1055D00004110A151104010208080000001111113C
:1055E000110102101104090504111111011001101B
:1055F00012190A150A100202040800000000000037
:105600000004000A04181600080200000200060147
:105610000E0E1F0E080E0E020E06000210000104F0
:105620000E110F0E071F010E110E06111F11110E84
:105630000116110F040E040A11041F0E100E001F94
:10564000001E0F0E1E0E020E110E06090E11110E77
:105650000110010F0C16040A110E1F0C04060000A5
:10566000000000000000000000000000000000003A
:10567000000000000000000000000000000000002A
:10568000000000000000000000000000000000001A
:10569000000000000000000000000000000000000A
:1056A00000000000000000000000000000000000FA
:1056B00000000000000000000000000000000000EA
:1056C0000000000000000000D85600002003016424
:1056D000080802000100000000186C6C10CE3808A9
:1056E000600C0000000000007C307C7CC6FE7CFE6C
:1056F0007C7C000070001C7C7C7C7E7C7EFEFE7CC2
:10570000C63C78C606C6C67C7E7C7E7C7EC6C6C687
:10571000C6C6FE7C007C10000C000600600038004D
:10572000060000060C000000000000000000000061
:105730000000003018188C000000000000186CFEFB
:10574000FC6A2C1830186C18000000C0C638C6C699
:10575000C606C6C0C6C61818387C38C6C6C6C6C671
:10576000C60606C6C618306606EECEC6C6C6C6C68D
:1057700018C6C6C6C6C6C00C066038000C000600B7
:1057800060000C00061830060C000000000000004D
:1057900018000000000000181830D60000000000BB
:1057A000001848FE162E2C1818303818000000601B
:1057B000C63060C0C6060660C6C618181C7C70C617
:1057C000F6C6C606C6060606C618303606FEDEC68D
:1057D000C6C6C60618C6C6C66CC6600C0C606C0091
:1057E000043C3E3C7C3C3C3C3E0000660C6E3E3C37
:1057F0003E3C363C186666C666667E181830620007
:10580000000000000018006C7C10DC001830FE7EE8
:105810001C7E0030C6303070FE7E7E307CFC000086
:105820000E00E070F6FE7E06C61E1EF6FE18301E46
:1058300006D6F6C67EC67E7C18C6C6D638FC300CA8
:105840001860C6000060660666660C66661830362C
:105850000CD6666666666E067C6666C63C66300C6E
:105860000060000000000000000000FED0E86600BC
:105870001830387E1C7E1C18C63018C0C0C0C61830
:10588000C6C018181C7C703076C6C606C60606C68A
:10589000C618303606C6E6C606B6C6C018C6C6FE68
:1058A0006CC0180C30600000007C6606667E0C7CC4
:1058B0006618301E0CD666663E56063C186666D6DE
:1058C000187C18181830000000000000001800FEB6
:1058D0007EAC660030186C1818001C0CC6300CC664
:1058E000C0C6C60CC6C61818387C380006C6C6C660
:1058F000C60606C6C618366606C6C6C60666C6C646
:1059000018C66CEEC6C00C0C606000FE0066660631
:1059100066060C60661836360CC666660626066095
:1059200018663CD63C600C181830000000000000DF
:105930000018006C10E6DC00600C00180C001C065F
:105940007C78FE7CC07C7C067C7C000C70001C306B
:105950007CC67E7C7EFE06FCC63C1CC6FEC6C67CA3
:1059600006DCC67C187C38C6C67EFE7CC07C00FE89
:10597000007C3E3C7C3C0C3E66701C6638C6663C37
:10598000065C063E707C18FC663E7E3018180000EF
:105990000000000000000000000000000000000007
:1059A00000000000000000000000000000000000F7
:1059B00000000000000000000000000000000000E7
:1059C00000000000000000000000000000000000D7
:1059D00000000000000000000000000000000000C7
:1059E00000000000000000000000000000000000B7
:1059F00000000000000000000809110850757368DD
:105A00002050423120746F20746F67676C650044CA
:105A10006F75626C65207075736820504231207418
:105A20006F00746F67676C6520626C696E6B696E7E
:105A300067204C4544310050757368205042302037
:105A4000746F20746F67676C65004C6F6E672070B1
:105A50007573682050423020746F00746F67676CF4
:105A60006520626C696E6B696E67204C454430003E
:105A700048756D69646974793A2025642525005458
:105A8000656D703A20256C692E256C6920430055A0
:105A90005620496E6465783A2025640053455400C9
:105AA00054454D5000484953540025642E25640048
:105AB000507573682050423120746F2073657420D4
:105AC00074656D7000507573682050423020746F9B
:105AD0002073657420686973740055736520636171
